S00B00004164632E7372656311
S11300000C9434000C943E000C943E000C943E007E
S11300100C943E000C943E000C943E000C943E0064
S11300200C943E000C943E000C943E000C943E0054
S11300300C943E000C943E000C943E000C943E0044
S11300400C943E000C943E000C943E000C943E0034
S11300500C943E000C943E000C943E000C943E0024
S11300600C943E000C943E0011241FBECFEFD8E048
S1130070DEBFCDBF0E9440000C946E000C940000C3
S113008080917C008F73806480937C0080917A00DF
S1130090806880937A00259A80917C008F738064B5
S11300A080937C0080917A00806880937A008091AC
S11300B07C00807D806280937C0080917A008064E3
S11300C080937A0080917A0086FDFCCF809179003C
S11300D0883C10F42D9AEBCF2D98E9CFF894FFCFFC
S9030000FC
