S00B00004164632E7372656311
S11300000C9434000C943E000C943E000C943E007E
S11300100C943E000C943E000C943E000C943E0064
S11300200C943E000C943E000C943E000C943E0054
S11300300C943E000C943E000C943E000C943E0044
S11300400C943E000C943E000C943E000C943E0034
S11300500C943E000C943E000C943E000C943E0024
S11300600C943E000C943E0011241FBECFEFD8E048
S1130070DEBFCDBF0E9440000C945A000C940000D7
S113008080917A00876880937A00259A90E690930D
S11300907C0080917A00806480937A0080917A0059
S11300A086FDFCCF80917900883C10F42D9AEFCF27
S10B00B02D98EDCFF894FFCF69
S9030000FC
